{"abi":[{"type":"constructor","inputs":[{"name":"_asset","type":"address","internalType":"contract IERC20"},{"name":"_gameItem","type":"address","internalType":"contract IERC1155"},{"name":"_targetTokenId","type":"uint256","internalType":"uint256"}],"stateMutability":"nonpayable"},{"type":"function","name":"BASIS_POINTS","inputs":[],"outputs":[{"name":"","type":"uint256","internalType":"uint256"}],"stateMutability":"view"},{"type":"function","name":"COOLDOWN","inputs":[],"outputs":[{"name":"","type":"uint256","internalType":"uint256"}],"stateMutability":"view"},{"type":"function","name":"SECONDS_PER_YEAR","inputs":[],"outputs":[{"name":"","type":"uint256","internalType":"uint256"}],"stateMutability":"view"},{"type":"function","name":"allowance","inputs":[{"name":"owner","type":"address","internalType":"address"},{"name":"spender","type":"address","internalType":"address"}],"outputs":[{"name":"","type":"uint256","internalType":"uint256"}],"stateMutability":"view"},{"type":"function","name":"approve","inputs":[{"name":"spender","type":"address","internalType":"address"},{"name":"value","type":"uint256","internalType":"uint256"}],"outputs":[{"name":"","type":"bool","internalType":"bool"}],"stateMutability":"nonpayable"},{"type":"function","name":"asset","inputs":[],"outputs":[{"name":"","type":"address","internalType":"address"}],"stateMutability":"view"},{"type":"function","name":"balanceOf","inputs":[{"name":"account","type":"address","internalType":"address"}],"outputs":[{"name":"","type":"uint256","internalType":"uint256"}],"stateMutability":"view"},{"type":"function","name":"convertToAssets","inputs":[{"name":"shares","type":"uint256","internalType":"uint256"}],"outputs":[{"name":"","type":"uint256","internalType":"uint256"}],"stateMutability":"view"},{"type":"function","name":"convertToShares","inputs":[{"name":"assets","type":"uint256","internalType":"uint256"}],"outputs":[{"name":"","type":"uint256","internalType":"uint256"}],"stateMutability":"view"},{"type":"function","name":"decimals","inputs":[],"outputs":[{"name":"","type":"uint8","internalType":"uint8"}],"stateMutability":"view"},{"type":"function","name":"deposit","inputs":[{"name":"assets","type":"uint256","internalType":"uint256"},{"name":"receiver","type":"address","internalType":"address"}],"outputs":[{"name":"","type":"uint256","internalType":"uint256"}],"stateMutability":"nonpayable"},{"type":"function","name":"depositNFT","inputs":[{"name":"amount","type":"uint256","internalType":"uint256"}],"outputs":[{"name":"shares","type":"uint256","internalType":"uint256"}],"stateMutability":"nonpayable"},{"type":"function","name":"depositTimestamp","inputs":[{"name":"","type":"address","internalType":"address"}],"outputs":[{"name":"","type":"uint256","internalType":"uint256"}],"stateMutability":"view"},{"type":"function","name":"gameItem","inputs":[],"outputs":[{"name":"","type":"address","internalType":"contract IERC1155"}],"stateMutability":"view"},{"type":"function","name":"lastYieldUpdate","inputs":[],"outputs":[{"name":"","type":"uint256","internalType":"uint256"}],"stateMutability":"view"},{"type":"function","name":"maxDeposit","inputs":[{"name":"","type":"address","internalType":"address"}],"outputs":[{"name":"","type":"uint256","internalType":"uint256"}],"stateMutability":"view"},{"type":"function","name":"maxMint","inputs":[{"name":"","type":"address","internalType":"address"}],"outputs":[{"name":"","type":"uint256","internalType":"uint256"}],"stateMutability":"view"},{"type":"function","name":"maxRedeem","inputs":[{"name":"owner","type":"address","internalType":"address"}],"outputs":[{"name":"","type":"uint256","internalType":"uint256"}],"stateMutability":"view"},{"type":"function","name":"maxWithdraw","inputs":[{"name":"owner","type":"address","internalType":"address"}],"outputs":[{"name":"","type":"uint256","internalType":"uint256"}],"stateMutability":"view"},{"type":"function","name":"mint","inputs":[{"name":"shares","type":"uint256","internalType":"uint256"},{"name":"receiver","type":"address","internalType":"address"}],"outputs":[{"name":"","type":"uint256","internalType":"uint256"}],"stateMutability":"nonpayable"},{"type":"function","name":"name","inputs":[],"outputs":[{"name":"","type":"string","internalType":"string"}],"stateMutability":"view"},{"type":"function","name":"onERC1155BatchReceived","inputs":[{"name":"","type":"address","internalType":"address"},{"name":"","type":"address","internalType":"address"},{"name":"","type":"uint256[]","internalType":"uint256[]"},{"name":"","type":"uint256[]","internalType":"uint256[]"},{"name":"","type":"bytes","internalType":"bytes"}],"outputs":[{"name":"","type":"bytes4","internalType":"bytes4"}],"stateMutability":"nonpayable"},{"type":"function","name":"onERC1155Received","inputs":[{"name":"","type":"address","internalType":"address"},{"name":"","type":"address","internalType":"address"},{"name":"","type":"uint256","internalType":"uint256"},{"name":"","type":"uint256","internalType":"uint256"},{"name":"","type":"bytes","internalType":"bytes"}],"outputs":[{"name":"","type":"bytes4","internalType":"bytes4"}],"stateMutability":"nonpayable"},{"type":"function","name":"owner","inputs":[],"outputs":[{"name":"","type":"address","internalType":"address"}],"stateMutability":"view"},{"type":"function","name":"previewDeposit","inputs":[{"name":"assets","type":"uint256","internalType":"uint256"}],"outputs":[{"name":"","type":"uint256","internalType":"uint256"}],"stateMutability":"view"},{"type":"function","name":"previewMint","inputs":[{"name":"shares","type":"uint256","internalType":"uint256"}],"outputs":[{"name":"","type":"uint256","internalType":"uint256"}],"stateMutability":"view"},{"type":"function","name":"previewRedeem","inputs":[{"name":"shares","type":"uint256","internalType":"uint256"}],"outputs":[{"name":"","type":"uint256","internalType":"uint256"}],"stateMutability":"view"},{"type":"function","name":"previewWithdraw","inputs":[{"name":"assets","type":"uint256","internalType":"uint256"}],"outputs":[{"name":"","type":"uint256","internalType":"uint256"}],"stateMutability":"view"},{"type":"function","name":"redeem","inputs":[{"name":"shares","type":"uint256","internalType":"uint256"},{"name":"receiver","type":"address","internalType":"address"},{"name":"owner","type":"address","internalType":"address"}],"outputs":[{"name":"","type":"uint256","internalType":"uint256"}],"stateMutability":"nonpayable"},{"type":"function","name":"renounceOwnership","inputs":[],"outputs":[],"stateMutability":"nonpayable"},{"type":"function","name":"setYieldRate","inputs":[{"name":"_yieldRate","type":"uint256","internalType":"uint256"}],"outputs":[],"stateMutability":"nonpayable"},{"type":"function","name":"supportsInterface","inputs":[{"name":"interfaceId","type":"bytes4","internalType":"bytes4"}],"outputs":[{"name":"","type":"bool","internalType":"bool"}],"stateMutability":"view"},{"type":"function","name":"symbol","inputs":[],"outputs":[{"name":"","type":"string","internalType":"string"}],"stateMutability":"view"},{"type":"function","name":"syncYield","inputs":[],"outputs":[],"stateMutability":"nonpayable"},{"type":"function","name":"targetTokenId","inputs":[],"outputs":[{"name":"","type":"uint256","internalType":"uint256"}],"stateMutability":"view"},{"type":"function","name":"totalAssets","inputs":[],"outputs":[{"name":"","type":"uint256","internalType":"uint256"}],"stateMutability":"view"},{"type":"function","name":"totalSupply","inputs":[],"outputs":[{"name":"","type":"uint256","internalType":"uint256"}],"stateMutability":"view"},{"type":"function","name":"transfer","inputs":[{"name":"to","type":"address","internalType":"address"},{"name":"value","type":"uint256","internalType":"uint256"}],"outputs":[{"name":"","type":"bool","internalType":"bool"}],"stateMutability":"nonpayable"},{"type":"function","name":"transferFrom","inputs":[{"name":"from","type":"address","internalType":"address"},{"name":"to","type":"address","internalType":"address"},{"name":"value","type":"uint256","internalType":"uint256"}],"outputs":[{"name":"","type":"bool","internalType":"bool"}],"stateMutability":"nonpayable"},{"type":"function","name":"transferOwnership","inputs":[{"name":"newOwner","type":"address","internalType":"address"}],"outputs":[],"stateMutability":"nonpayable"},{"type":"function","name":"updateYield","inputs":[],"outputs":[],"stateMutability":"nonpayable"},{"type":"function","name":"withdraw","inputs":[{"name":"assets","type":"uint256","internalType":"uint256"},{"name":"receiver","type":"address","internalType":"address"},{"name":"owner","type":"address","internalType":"address"}],"outputs":[{"name":"","type":"uint256","internalType":"uint256"}],"stateMutability":"nonpayable"},{"type":"function","name":"withdrawNFT","inputs":[{"name":"shares","type":"uint256","internalType":"uint256"}],"outputs":[{"name":"amount","type":"uint256","internalType":"uint256"}],"stateMutability":"nonpayable"},{"type":"function","name":"yieldRate","inputs":[],"outputs":[{"name":"","type":"uint256","internalType":"uint256"}],"stateMutability":"view"},{"type":"event","name":"Approval","inputs":[{"name":"owner","type":"address","indexed":true,"internalType":"address"},{"name":"spender","type":"address","indexed":true,"internalType":"address"},{"name":"value","type":"uint256","indexed":false,"internalType":"uint256"}],"anonymous":false},{"type":"event","name":"Deposit","inputs":[{"name":"sender","type":"address","indexed":true,"internalType":"address"},{"name":"owner","type":"address","indexed":true,"internalType":"address"},{"name":"assets","type":"uint256","indexed":false,"internalType":"uint256"},{"name":"shares","type":"uint256","indexed":false,"internalType":"uint256"}],"anonymous":false},{"type":"event","name":"NFTDeposited","inputs":[{"name":"user","type":"address","indexed":true,"internalType":"address"},{"name":"tokenId","type":"uint256","indexed":false,"internalType":"uint256"},{"name":"amount","type":"uint256","indexed":false,"internalType":"uint256"},{"name":"shares","type":"uint256","indexed":false,"internalType":"uint256"}],"anonymous":false},{"type":"event","name":"NFTWithdrawn","inputs":[{"name":"user","type":"address","indexed":true,"internalType":"address"},{"name":"tokenId","type":"uint256","indexed":false,"internalType":"uint256"},{"name":"amount","type":"uint256","indexed":false,"internalType":"uint256"},{"name":"shares","type":"uint256","indexed":false,"internalType":"uint256"}],"anonymous":false},{"type":"event","name":"OwnershipTransferred","inputs":[{"name":"previousOwner","type":"address","indexed":true,"internalType":"address"},{"name":"newOwner","type":"address","indexed":true,"internalType":"address"}],"anonymous":false},{"type":"event","name":"Transfer","inputs":[{"name":"from","type":"address","indexed":true,"internalType":"address"},{"name":"to","type":"address","indexed":true,"internalType":"address"},{"name":"value","type":"uint256","indexed":false,"internalType":"uint256"}],"anonymous":false},{"type":"event","name":"Withdraw","inputs":[{"name":"sender","type":"address","indexed":true,"internalType":"address"},{"name":"receiver","type":"address","indexed":true,"internalType":"address"},{"name":"owner","type":"address","indexed":true,"internalType":"address"},{"name":"assets","type":"uint256","indexed":false,"internalType":"uint256"},{"name":"shares","type":"uint256","indexed":false,"internalType":"uint256"}],"anonymous":false},{"type":"event","name":"YieldUpdated","inputs":[{"name":"newRate","type":"uint256","indexed":false,"internalType":"uint256"}],"anonymous":false},{"type":"error","name":"ERC20InsufficientAllowance","inputs":[{"name":"spender","type":"address","internalType":"address"},{"name":"allowance","type":"uint256","internalType":"uint256"},{"name":"needed","type":"uint256","internalType":"uint256"}]},{"type":"error","name":"ERC20InsufficientBalance","inputs":[{"name":"sender","type":"address","internalType":"address"},{"name":"balance","type":"uint256","internalType":"uint256"},{"name":"needed","type":"uint256","internalType":"uint256"}]},{"type":"error","name":"ERC20InvalidApprover","inputs":[{"name":"approver","type":"address","internalType":"address"}]},{"type":"error","name":"ERC20InvalidReceiver","inputs":[{"name":"receiver","type":"address","internalType":"address"}]},{"type":"error","name":"ERC20InvalidSender","inputs":[{"name":"sender","type":"address","internalType":"address"}]},{"type":"error","name":"ERC20InvalidSpender","inputs":[{"name":"spender","type":"address","internalType":"address"}]},{"type":"error","name":"ERC4626ExceededMaxDeposit","inputs":[{"name":"receiver","type":"address","internalType":"address"},{"name":"assets","type":"uint256","internalType":"uint256"},{"name":"max","type":"uint256","internalType":"uint256"}]},{"type":"error","name":"ERC4626ExceededMaxMint","inputs":[{"name":"receiver","type":"address","internalType":"address"},{"name":"shares","type":"uint256","internalType":"uint256"},{"name":"max","type":"uint256","internalType":"uint256"}]},{"type":"error","name":"ERC4626ExceededMaxRedeem","inputs":[{"name":"owner","type":"address","internalType":"address"},{"name":"shares","type":"uint256","internalType":"uint256"},{"name":"max","type":"uint256","internalType":"uint256"}]},{"type":"error","name":"ERC4626ExceededMaxWithdraw","inputs":[{"name":"owner","type":"address","internalType":"address"},{"name":"assets","type":"uint256","internalType":"uint256"},{"name":"max","type":"uint256","internalType":"uint256"}]},{"type":"error","name":"OwnableInvalidOwner","inputs":[{"name":"owner","type":"address","internalType":"address"}]},{"type":"error","name":"OwnableUnauthorizedAccount","inputs":[{"name":"account","type":"address","internalType":"address"}]},{"type":"error","name":"ReentrancyGuardReentrantCall","inputs":[]},{"type":"error","name":"SafeERC20FailedOperation","inputs":[{"name":"token","type":"address","internalType":"address"}]}],"bytecode":{"object":"0x6101006040526103e860075534801562000017575f80fd5b50604051620023ef380380620023ef8339810160408190526200003a9162000278565b33836040518060400160405280601281526020017147616d652052656e74616c2053686172657360701b8152506040518060400160405280600381526020016247525360e81b81525081600390816200009491906200035b565b506004620000a382826200035b565b5050505f80620000b9836200015560201b60201c565b9150915081620000cb576012620000cd565b805b60ff1660a05250506001600160a01b0390811660805281166200010957604051631e4fbdf760e01b81525f600482015260240160405180910390fd5b6200011481620001ee565b5060017f9b779b17422d0df92223018b32b4d1fa46e071723d6817e2486d003becc55f00556001600160a01b0390911660c05260e052504260065562000427565b5f80806200016260405190565b6040805160048152602481019091526020810180516001600160e01b0390811663313ce56760e01b179091529192505f918291620001a4918891906200023f16565b509092509050620001b483604052565b818015620001c3575060203d10155b8015620001d1575060ff8111155b620001de575f80620001e2565b6001815b94509450505050915091565b600580546001600160a01b038381166001600160a01b0319831681179093556040519116919082907f8be0079c531659141344cd1fd0a4f28419497f9722a3daafe3b4186f6b6457e0905f90a35050565b5f805f60405f855160208701885afa92505f51915060205190509250925092565b6001600160a01b038116811462000275575f80fd5b50565b5f805f606084860312156200028b575f80fd5b8351620002988162000260565b6020850151909350620002ab8162000260565b80925050604084015190509250925092565b634e487b7160e01b5f52604160045260245ffd5b600181811c90821680620002e657607f821691505b6020821081036200030557634e487b7160e01b5f52602260045260245ffd5b50919050565b601f8211156200035657805f5260205f20601f840160051c81016020851015620003325750805b601f840160051c820191505b8181101562000353575f81556001016200033e565b50505b505050565b81516001600160401b03811115620003775762000377620002bd565b6200038f81620003888454620002d1565b846200030b565b602080601f831160018114620003c5575f8415620003ad5750858301515b5f19600386901b1c1916600185901b1785556200041f565b5f85815260208120601f198616915b82811015620003f557888601518255948401946001909101908401620003d4565b50858210156200041357878501515f19600388901b60f8161c191681555b505060018460011b0185555b505050505050565b60805160a05160c05160e051611f40620004af5f395f81816104bd0152818161069b01528181610950015281816109ab01528181610e470152610ec101525f81816103ca015281816106ce0152818161091f0152610e1601525f610b5a01525f818161035a0152818161060001528181610c7201528181611700015261172c0152611f405ff3fe608060405234801561000f575f80fd5b506004361061026b575f3560e01c806394bf804d1161014b578063c63d75b6116100bf578063e1f1c4a711610084578063e1f1c4a7146105a3578063e6a69ab8146105ac578063e91a7ca6146105b7578063ef8b30f714610532578063f23a6e61146105ca578063f2fde38b146105e9575f80fd5b8063c63d75b614610392578063c6e6f59214610532578063ce96cb7714610545578063d905777e14610558578063dd62ed3e1461056b575f80fd5b8063b3d7f6b911610110578063b3d7f6b914610492578063b460af94146104a5578063b4967394146104b8578063ba087652146104df578063bb21a997146104f2578063bc197c81146104fa575f80fd5b806394bf804d1461045257806395d89b4114610465578063a2724a4d1461046d578063a9059cbb14610477578063b0ba85031461048a575f80fd5b806338d52e0f116101e25780636999ac93116101a75780636999ac93146103ec5780636e553f65146103f557806370a0823114610408578063715018a6146104305780638da5cb5b146104385780638f8c8aee14610449575f80fd5b806338d52e0f14610358578063402d267d1461039257806346b00d04146103a65780634cdad506146102d55780635e8e9cd6146103c5575f80fd5b8063095ea7b311610233578063095ea7b3146102e85780630a28a477146102fb5780631411dab01461030e57806318160ddd1461032357806323b872dd1461032b578063313ce5671461033e575f80fd5b806301e1d1141461026f57806301ffc9a71461028a578063023245d7146102ad57806306fdde03146102c057806307a2d13a146102d5575b5f80fd5b6102776105fc565b6040519081526020015b60405180910390f35b61029d6102983660046118b9565b6107c9565b6040519015158152602001610281565b6102776102bb3660046118e0565b6107d9565b6102c8610a25565b60405161028191906118f7565b6102776102e33660046118e0565b610ab5565b61029d6102f6366004611959565b610ac0565b6102776103093660046118e0565b610ad7565b61032161031c3660046118e0565b610ae3565b005b600254610277565b61029d610339366004611981565b610b2e565b610346610b53565b60405160ff9091168152602001610281565b7f00000000000000000000000000000000000000000000000000000000000000005b6040516001600160a01b039091168152602001610281565b6102776103a03660046119ba565b505f1990565b6102776103b43660046119ba565b60086020525f908152604090205481565b61037a7f000000000000000000000000000000000000000000000000000000000000000081565b61027760075481565b6102776104033660046119d3565b610b83565b6102776104163660046119ba565b6001600160a01b03165f9081526020819052604090205490565b610321610bb6565b6005546001600160a01b031661037a565b61027760065481565b6102776104603660046119d3565b610bc9565b6102c8610be4565b61027762093a8081565b61029d610485366004611959565b610bf3565b610321610c00565b6102776104a03660046118e0565b610cf4565b6102776104b33660046119fd565b610d00565b6102777f000000000000000000000000000000000000000000000000000000000000000081565b6102776104ed3660046119fd565b610d34565b610321610d50565b610519610508366004611b64565b63bc197c8160e01b95945050505050565b6040516001600160e01b03199091168152602001610281565b6102776105403660046118e0565b610d58565b6102776105533660046119ba565b610d63565b6102776105663660046119ba565b610d6c565b610277610579366004611c07565b6001600160a01b039182165f90815260016020908152604080832093909416825291909152205490565b61027761271081565b6102776301e1338081565b6102776105c53660046118e0565b610d89565b6105196105d8366004611c2f565b63f23a6e6160e01b95945050505050565b6103216105f73660046119ba565b610f32565b5f807f00000000000000000000000000000000000000000000000000000000000000006040516370a0823160e01b81523060048201526001600160a01b0391909116906370a0823190602401602060405180830381865afa158015610663573d5f803e3d5ffd5b505050506040513d601f19601f820116820180604052508101906106879190611c8f565b604051627eeac760e11b81523060048201527f000000000000000000000000000000000000000000000000000000000000000060248201529091505f906001600160a01b037f0000000000000000000000000000000000000000000000000000000000000000169062fdd58e90604401602060405180830381865afa158015610712573d5f803e3d5ffd5b505050506040513d601f19601f820116820180604052508101906107369190611c8f565b61074890670de0b6b3a7640000611cba565b90505f6107558284611cd1565b90505f600654426107669190611ce4565b9050805f0361077757509392505050565b5f6107886301e13380612710611cba565b8260075461079560025490565b61079f9190611cba565b6107a99190611cba565b6107b39190611d0b565b90506107bf8184611cd1565b9550505050505090565b5f6107d382610f6f565b92915050565b5f6107e2610fa3565b5f821161082b5760405162461bcd60e51b81526020600482015260126024820152710536861726573206d757374206265203e20360741b60448201526064015b60405180910390fd5b335f908152600860205260409020546108489062093a8090611cd1565b4210156108895760405162461bcd60e51b815260206004820152600f60248201526e436f6f6c646f776e2061637469766560881b6044820152606401610822565b610891610c00565b670de0b6b3a76400006108a383610ab5565b6108ad9190611d0b565b90505f81116108fe5760405162461bcd60e51b815260206004820152601d60248201527f496e73756666696369656e742073686172657320666f722031204e46540000006044820152606401610822565b6109083383610fbe565b604051637921219560e11b81526001600160a01b037f0000000000000000000000000000000000000000000000000000000000000000169063f242432a9061097a90309033907f0000000000000000000000000000000000000000000000000000000000000000908790600401611d1e565b5f604051808303815f87803b158015610991575f80fd5b505af11580156109a3573d5f803e3d5ffd5b5050604080517f00000000000000000000000000000000000000000000000000000000000000008152602081018590529081018590523392507f7dd36bea3af2d54001482fb00a4edb21938e346f5e1cfe333cca5253aadcb8a8915060600160405180910390a2610a2060015f80516020611eeb83398151915255565b919050565b606060038054610a3490611d55565b80601f0160208091040260200160405190810160405280929190818152602001828054610a6090611d55565b8015610aab5780601f10610a8257610100808354040283529160200191610aab565b820191905f5260205f20905b815481529060010190602001808311610a8e57829003601f168201915b5050505050905090565b5f6107d3825f610ff6565b5f33610acd81858561102e565b5060019392505050565b5f6107d3826001611040565b610aeb61106f565b610af3610d50565b60078190556040518181527f90427aaa52d772393dbc0baaaa6eb821cdec72ed0870206d71ccc004efe43bba9060200160405180910390a150565b5f33610b3b85828561109c565b610b46858585611105565b60019150505b9392505050565b5f610b7e817f0000000000000000000000000000000000000000000000000000000000000000611d8d565b905090565b5f610b8c610fa3565b610b94610c00565b610b9e8383611162565b90506107d360015f80516020611eeb83398151915255565b610bbe61106f565b610bc75f611185565b565b5f610bd2610fa3565b610bda610c00565b610b9e83836111d6565b606060048054610a3490611d55565b5f33610acd818585611105565b5f60065442610c0f9190611ce4565b90505f81118015610c2757505f610c2560025490565b115b15610ced575f610c3d6301e13380612710611cba565b82600754610c4a60025490565b610c549190611cba565b610c5e9190611cba565b610c689190611d0b565b90508015610ceb577f00000000000000000000000000000000000000000000000000000000000000006040516340c10f1960e01b8152306004820152602481018390526001600160a01b0391909116906340c10f19906044015f604051808303815f87803b158015610cd8575f80fd5b505af1925050508015610ce9575060015b505b505b5042600655565b5f6107d3826001610ff6565b5f610d09610fa3565b610d11610c00565b610d1c8484846111f1565b9050610b4c60015f80516020611eeb83398151915255565b5f610d3d610fa3565b610d45610c00565b610d1c848484611247565b610bc7610c00565b5f6107d3825f611040565b5f6107d36102e3835b6001600160a01b0381165f908152602081905260408120546107d3565b5f610d92610fa3565b5f8211610dd65760405162461bcd60e51b81526020600482015260126024820152710416d6f756e74206d757374206265203e20360741b6044820152606401610822565b610dde610c00565b5f610df183670de0b6b3a7640000611cba565b9050610dfc81610d58565b604051637921219560e11b81529092506001600160a01b037f0000000000000000000000000000000000000000000000000000000000000000169063f242432a90610e7190339030907f0000000000000000000000000000000000000000000000000000000000000000908990600401611d1e565b5f604051808303815f87803b158015610e88575f80fd5b505af1158015610e9a573d5f803e3d5ffd5b50505050610ea83383611294565b335f8181526008602090815260409182902042905581517f000000000000000000000000000000000000000000000000000000000000000081529081018690529081018490527f8e169393d421444220d8a921ebf51dfac24a1765e6b97d40bc670b11d90976d79060600160405180910390a250610a2060015f80516020611eeb83398151915255565b610f3a61106f565b6001600160a01b038116610f6357604051631e4fbdf760e01b81525f6004820152602401610822565b610f6c81611185565b50565b5f6001600160e01b03198216630271189760e51b14806107d357506301ffc9a760e01b6001600160e01b03198316146107d3565b610fab6112c8565b60025f80516020611eeb83398151915255565b6001600160a01b038216610fe757604051634b637e8f60e11b81525f6004820152602401610822565b610ff2825f836112f7565b5050565b5f610b4c6110026105fc565b61100d906001611cd1565b6110185f600a611e86565b6002546110259190611cd1565b8591908561140a565b61103b838383600161144c565b505050565b5f610b4c61104f82600a611e86565b60025461105c9190611cd1565b6110646105fc565b611025906001611cd1565b6005546001600160a01b03163314610bc75760405163118cdaa760e01b8152336004820152602401610822565b6001600160a01b038381165f908152600160209081526040808320938616835292905220545f198110156110ff57818110156110f157828183604051637dc7a0d960e11b815260040161082293929190611e94565b6110ff84848484035f61144c565b50505050565b6001600160a01b03831661112e57604051634b637e8f60e11b81525f6004820152602401610822565b6001600160a01b0382166111575760405163ec442f0560e01b81525f6004820152602401610822565b61103b8383836112f7565b5f5f195f61116f85610d58565b905061117d3385878461151e565b949350505050565b600580546001600160a01b038381166001600160a01b0319831681179093556040519116919082907f8be0079c531659141344cd1fd0a4f28419497f9722a3daafe3b4186f6b6457e0905f90a35050565b5f5f195f6111e385610cf4565b905061117d3385838861151e565b5f806111fc83610d63565b90508085111561122557828582604051633fa733bb60e21b815260040161082293929190611e94565b5f61122f86610ad7565b905061123e3386868985611580565b95945050505050565b5f8061125283610d6c565b90508085111561127b57828582604051632e52afbb60e21b815260040161082293929190611e94565b5f61128586610ab5565b905061123e338686848a611580565b6001600160a01b0382166112bd5760405163ec442f0560e01b81525f6004820152602401610822565b610ff25f83836112f7565b5f80516020611eeb83398151915254600203610bc757604051633ee5aeb560e01b815260040160405180910390fd5b6001600160a01b038316611321578060025f8282546113169190611cd1565b9091555061137e9050565b6001600160a01b0383165f90815260208190526040902054818110156113605783818360405163391434e360e21b815260040161082293929190611e94565b6001600160a01b0384165f9081526020819052604090209082900390555b6001600160a01b03821661139a576002805482900390556113b8565b6001600160a01b0382165f9081526020819052604090208054820190555b816001600160a01b0316836001600160a01b03167fddf252ad1be2c89b69c2b068fc378daa952ba7f163c4a11628f55a4df523b3ef836040516113fd91815260200190565b60405180910390a3505050565b5f6114376114178361161f565b801561143257505f848061142d5761142d611cf7565b868809115b151590565b61144286868661164b565b61123e9190611cd1565b6001600160a01b0384166114755760405163e602df0560e01b81525f6004820152602401610822565b6001600160a01b03831661149e57604051634a1406b160e11b81525f6004820152602401610822565b6001600160a01b038085165f90815260016020908152604080832093871683529290522082905580156110ff57826001600160a01b0316846001600160a01b03167f8c5be1e5ebec7d5bd14f71427d1e84f3dd0314c0f7b2291e5b200ac8c7c3b9258460405161151091815260200190565b60405180910390a350505050565b61152884836116fb565b6115328382611294565b826001600160a01b0316846001600160a01b03167fdcbc1c05240f31ff3ad067ef1ee35ce4997762752e3a095284754544f4c709d78484604051611510929190918252602082015260400190565b826001600160a01b0316856001600160a01b0316146115a4576115a483868361109c565b6115ae8382610fbe565b6115b88483611727565b826001600160a01b0316846001600160a01b0316866001600160a01b03167ffbde797d201c681b91056529119e0b02407c7bb96a4a2c75c01fc9667232c8db8585604051611610929190918252602082015260400190565b60405180910390a45050505050565b5f600282600381111561163457611634611eb5565b61163e9190611ec9565b60ff166001149050919050565b5f805f6116588686611752565b91509150815f0361167c5783818161167257611672611cf7565b0492505050610b4c565b81841161169357611693600385150260111861176e565b5f848688095f868103871696879004966002600389028118808a02820302808a02820302808a02820302808a02820302808a02820302808a02909103029181900381900460010185841190960395909502919093039390930492909217029150509392505050565b610ff27f000000000000000000000000000000000000000000000000000000000000000083308461177f565b610ff27f000000000000000000000000000000000000000000000000000000000000000083836117b5565b5f805f1983850993909202808410938190039390930393915050565b634e487b715f52806020526024601cfd5b61178d8484848460016117ea565b6110ff57604051635274afe760e01b81526001600160a01b0385166004820152602401610822565b6117c28383836001611857565b61103b57604051635274afe760e01b81526001600160a01b0384166004820152602401610822565b6040516323b872dd60e01b5f8181526001600160a01b038781166004528616602452604485905291602083606481808c5af1925060015f5114831661184657838315161561183a573d5f823e3d81fd5b5f883b113d1516831692505b604052505f60605295945050505050565b60405163a9059cbb60e01b5f8181526001600160a01b038616600452602485905291602083604481808b5af1925060015f511483166118ad5783831516156118a1573d5f823e3d81fd5b5f873b113d1516831692505b60405250949350505050565b5f602082840312156118c9575f80fd5b81356001600160e01b031981168114610b4c575f80fd5b5f602082840312156118f0575f80fd5b5035919050565b5f602080835283518060208501525f5b8181101561192357858101830151858201604001528201611907565b505f604082860101526040601f19601f8301168501019250505092915050565b80356001600160a01b0381168114610a20575f80fd5b5f806040838503121561196a575f80fd5b61197383611943565b946020939093013593505050565b5f805f60608486031215611993575f80fd5b61199c84611943565b92506119aa60208501611943565b9150604084013590509250925092565b5f602082840312156119ca575f80fd5b610b4c82611943565b5f80604083850312156119e4575f80fd5b823591506119f460208401611943565b90509250929050565b5f805f60608486031215611a0f575f80fd5b83359250611a1f60208501611943565b9150611a2d60408501611943565b90509250925092565b634e487b7160e01b5f52604160045260245ffd5b604051601f8201601f1916810167ffffffffffffffff81118282101715611a7357611a73611a36565b604052919050565b5f82601f830112611a8a575f80fd5b8135602067ffffffffffffffff821115611aa657611aa6611a36565b8160051b611ab5828201611a4a565b9283528481018201928281019087851115611ace575f80fd5b83870192505b84831015611aed57823582529183019190830190611ad4565b979650505050505050565b5f82601f830112611b07575f80fd5b813567ffffffffffffffff811115611b2157611b21611a36565b611b34601f8201601f1916602001611a4a565b818152846020838601011115611b48575f80fd5b816020850160208301375f918101602001919091529392505050565b5f805f805f60a08688031215611b78575f80fd5b611b8186611943565b9450611b8f60208701611943565b9350604086013567ffffffffffffffff80821115611bab575f80fd5b611bb789838a01611a7b565b94506060880135915080821115611bcc575f80fd5b611bd889838a01611a7b565b93506080880135915080821115611bed575f80fd5b50611bfa88828901611af8565b9150509295509295909350565b5f8060408385031215611c18575f80fd5b611c2183611943565b91506119f460208401611943565b5f805f805f60a08688031215611c43575f80fd5b611c4c86611943565b9450611c5a60208701611943565b93506040860135925060608601359150608086013567ffffffffffffffff811115611c83575f80fd5b611bfa88828901611af8565b5f60208284031215611c9f575f80fd5b5051919050565b634e487b7160e01b5f52601160045260245ffd5b80820281158282048414176107d3576107d3611ca6565b808201808211156107d3576107d3611ca6565b818103818111156107d3576107d3611ca6565b634e487b7160e01b5f52601260045260245ffd5b5f82611d1957611d19611cf7565b500490565b6001600160a01b0394851681529290931660208301526040820152606081019190915260a0608082018190525f9082015260c00190565b600181811c90821680611d6957607f821691505b602082108103611d8757634e487b7160e01b5f52602260045260245ffd5b50919050565b60ff81811683821601908111156107d3576107d3611ca6565b600181815b80851115611de057815f1904821115611dc657611dc6611ca6565b80851615611dd357918102915b93841c9390800290611dab565b509250929050565b5f82611df6575060016107d3565b81611e0257505f6107d3565b8160018114611e185760028114611e2257611e3e565b60019150506107d3565b60ff841115611e3357611e33611ca6565b50506001821b6107d3565b5060208310610133831016604e8410600b8410161715611e61575081810a6107d3565b611e6b8383611da6565b805f1904821115611e7e57611e7e611ca6565b029392505050565b5f610b4c60ff841683611de8565b6001600160a01b039390931683526020830191909152604082015260600190565b634e487b7160e01b5f52602160045260245ffd5b5f60ff831680611edb57611edb611cf7565b8060ff8416069150509291505056fe9b779b17422d0df92223018b32b4d1fa46e071723d6817e2486d003becc55f00a264697066735822122067af0ed5e5c7798235cbd9aafbb308084a779083e958c100da49cf5c123c6cf664736f6c63430008180033","linkReferences":{}},"methodIdentifiers":{"BASIS_POINTS()":"e1f1c4a7","COOLDOWN()":"a2724a4d","SECONDS_PER_YEAR()":"e6a69ab8","allowance(address,address)":"dd62ed3e","approve(address,uint256)":"095ea7b3","asset()":"38d52e0f","balanceOf(address)":"70a08231","convertToAssets(uint256)":"07a2d13a","convertToShares(uint256)":"c6e6f592","decimals()":"313ce567","deposit(uint256,address)":"6e553f65","depositNFT(uint256)":"e91a7ca6","depositTimestamp(address)":"46b00d04","gameItem()":"5e8e9cd6","lastYieldUpdate()":"8f8c8aee","maxDeposit(address)":"402d267d","maxMint(address)":"c63d75b6","maxRedeem(address)":"d905777e","maxWithdraw(address)":"ce96cb77","mint(uint256,address)":"94bf804d","name()":"06fdde03","onERC1155BatchReceived(address,address,uint256[],uint256[],bytes)":"bc197c81","onERC1155Received(address,address,uint256,uint256,bytes)":"f23a6e61","owner()":"8da5cb5b","previewDeposit(uint256)":"ef8b30f7","previewMint(uint256)":"b3d7f6b9","previewRedeem(uint256)":"4cdad506","previewWithdraw(uint256)":"0a28a477","redeem(uint256,address,address)":"ba087652","renounceOwnership()":"715018a6","setYieldRate(uint256)":"1411dab0","supportsInterface(bytes4)":"01ffc9a7","symbol()":"95d89b41","syncYield()":"b0ba8503","targetTokenId()":"b4967394","totalAssets()":"01e1d114","totalSupply()":"18160ddd","transfer(address,uint256)":"a9059cbb","transferFrom(address,address,uint256)":"23b872dd","transferOwnership(address)":"f2fde38b","updateYield()":"bb21a997","withdraw(uint256,address,address)":"b460af94","withdrawNFT(uint256)":"023245d7","yieldRate()":"6999ac93"},"id":93}